:060000000A128A11132907
:10000800F000030EF1000B1928218C1819210C1887
:0C0018001F21710E8300F00E700E090015
:100200008A010A1482073F3406345B344F34663463
:100210006D347D3407347F34673477347C3439343B
:100220005E34793471347E21502173144221492186
:100230001629031383128C109101890A08000313F5
:100240008312DC308E000B308F000C10F20A080095
:1002500003138312AA3081000B118801091C342971
:1002600073183C29F31836298701080075088700A0
:100270008814F310731408007608870008147310AC
:10028000F314080072080F39F700720E0F39F800E6
:10029000080077080021F50078080021F600080022
:1002A00003178316880189010313831687018801C8
:1002B00009100C148C14F43092000313831287017C
:1002C000880189018C100C101014901090111012DC
:1002D00090161013921412159215121692161217E8
:1002E000031383168112811101108110011503136C
:1002F00083160F178F120F120F1408008B178B160F
:040300000B170800CF
:04400E00C430FF3F7C
:00000001FF
